:020000040800F2
:10000000F80400202D170008011700080317000846
:1000100000000000000000000000000000000000E0
:1000200000000000000000000000000005170008AC
:100030000000000000000000071700080917000872
:1000400097080008470900084B090008DF16000858
:10005000EB1600081B1700081117000861170008AD
:100060000000000063170008651700086717000804
:10007000691700086B170008000000006D170008E2
:10008000000000006F1700080000000000000000E2
:1000900071170008000000007317000875170008AA
:1000A00077170008791700087B1700087D170008EC
:1000B0007F17000881170008000000000000000002
:1000C000F8B584B0060064D0BE4CE0680C21014055
:1000D0000091E06880214902084003903078C00711
:1000E0000ED54F000098082804D00C2876D103982C
:1000F000884273D12068074002D07068002848D039
:10010000022002903068022101402FD0F068AE4FEB
:100110000921C94304220192009A042A06D0009AB8
:100120000C2A01D1039A002A00D092E0226804230D
:10013000134001D000282CD06268174032691202A7
:100140003A436260226811400843206000F0ACFA34
:10015000B149E2681206120F895CC840AF490860D5
:10016000AF48006800F006FB010036D1A70D3078DB
:10017000C00600D4B8E0BC480390600D0190009820
:10018000002800D090E020680199014003D0B069B8
:10019000002800D1A7E1606803990140306A084354
:1001A000606060680002000AF1690906014361604D
:1001B0000120316A490B491C8840C0039649E26816
:1001C0001206120F895CC840944908609448006880
:1001D00000F0D0FA010000D186E087E17068884223
:1001E00001D1206809E0A021C9028842206806D117
:1001F0007900014321602068790801430AE0BC4985
:100200000140216020687908084001900198206829
:10021000B84901402160706800280DD000F0CCFA88
:1002200005002068384000D06AE700F0C5FA401B9E
:100230006528F6D3032059E100F0BEFA05002068D6
:10024000384000D15CE700F0B7FA401B6528F6D3D0
:10025000F0E7002817D0226811400843206000F022
:10026000ABFA050020680199014005D100F0A4FA1D
:10027000401B0228F6D9DDE76068074030690002BC
:100280003843606072E7206801218843206000F0F5
:1002900093FA0500206801990140F3D000F08CFA30
:1002A000401B0228F6D9C5E7B0690028206832D083
:1002B0003843206000F080FA050020680199014071
:1002C00005D100F079FA401B0228F6D9B2E7606840
:1002D00003990140306A0843606060680002000AC8
:1002E000F1690906014361603078000733D5706910
:1002F0000028206D1FD001210143216500F05CFA28
:100300000500206D0299014025D100F055FA401BEF
:100310000228F6D98EE778490140216000F04CFAB6
:100320000500206801990140DED000F045FA401B2D
:100330000228F6D97EE701218843206500F03CFAC7
:100340000500206D0299014005D000F035FA401BF0
:100350000228F6D96EE7307840076AD50020019070
:100360003805A16B014004D1A16B0843A0630120B3
:10037000019062480068384011D1604800683843F5
:100380005E49086000F018FA05005C4800683840D3
:1003900005D100F011FA401B6528F6D34AE7B16891
:1003A000B9420AD05648002910D0A022D20091426A
:1003B0000CD1206D210D01432165206D0743276578
:1003C0000BE000BF00100240FFE0FFFF216D4A4A32
:1003D0000A402265216D08402065670DB06800283D
:1003E0000CD000F0E9F90500206D38401AD100F07A
:1003F000E3F9401BA8498842F6D31BE700F0DCF97B
:100400000500206D38400DD000F0D6F9401BA24900
:100410008842F6D30EE700BF981600080C000020B3
:10042000080000200198002803D0A06B9B490140E0
:10043000A163706A002858D000990C293ED080270B
:10044000BF049749022820682AD10140216000F0AA
:10045000B3F905002068384008D000F0ADF9401B22
:100460000228F7D9E6E600BFFF1FFFFFE0688D49CD
:100470000140B06A0843F16A0143306B0843E06011
:10048000206879080143216000F096F90500206892
:1004900038402AD100F090F9401B0228F7D9C9E66C
:1004A0000140216000F088F90500206838401CD028
:1004B00000F082F9401B0228F7D9BBE6012812D0D0
:1004C000E068802149020140B26A91420BD1F021DB
:1004D00089030140F26A914205D1C021090401401B
:1004E000306B814201D0012000E0002005B0F0BD5A
:1004F000FFFFFEFFFFFFFBFFFFFEFFFF007000405E
:10050000FFFBFFFFF1B582B000285CD00091624F85
:1005100086480068C107C90F0098814217D2834CF2
:1005200020680121884300990143216000F044F9CB
:10053000009D06002068C107C90FA94206D000F03F
:100540003BF9801BB842F5D30320FEBD00957D4CDE
:1005500002980078800706D5E068F0218843029968
:1005600089680143E1603E4602980078C0074DD596
:1005700002984068022819D12168890323D5E168CF
:10058000032291430843E06000F016F90700029847
:1005900040680C25022818D1E0682840082835D08A
:1005A00000F00AF9C01BB042F6D3CDE7032802D110
:1005B0002168890103E00128216802D14907DED4BE
:1005C00001E08905DBD40120FEBD032809D1E068E4
:1005D00028400C281AD000F0EFF8C01BB042F6D328
:1005E000B2E7012809D1E068284004280ED000F0C5
:1005F000E3F8C01BB042F6D3A6E7E068284005D078
:1006000000F0DAF8C01BB0429ED2F6E700984749E6
:100610000968CA07D20F904215D2444D28680121BB
:10062000884300990143296000F0C6F80700286854
:10063000C107C90F0098814205D000F0BDF8C01B6A
:10064000B042F4D380E702980078400706D5E0680E
:100650003D4901400298C0680843E0600298007874
:10066000000707D5E0683949014002980069C000D9
:100670000843E06000F018F83549E2681206120FEE
:10068000895CC840334908603348006800F072F85C
:10069000010000D10020FEBD89130000FFFFFFEF25
:1006A000FFFFFFFEFFFF02FF50B5264AD16810236F
:1006B0000C200840042804D0082809D00C2809D0B0
:1006C00023E01068034001D0254850BD254850BDA7
:1006D000254850BD25488C02240F005D09028C0F6F
:1006E000641C0021D668F60301D51F4A03E0126896
:1006F000134002D01A4A002300E01A4A00F062F8C0
:100700002200002300F077F850BD5068012100045A
:10071000400F401C8140C80350BD0E48006814497A
:100720000E4A1268520509E0000000000020024055
:10073000084800680E49094A12689204520F895C01
:10074000C840704700100240FFF8FFFFFFC7FFFFDF
:10075000981600080C000020080000200C10024031
:1007600000093D000024F40000127A00A8160008D9
:100770005817000838B505000D4CFA208000217884
:1007800000F06EF801000B48006800F069F800F016
:10079000BAF800280AD1042D08D20022290000202E
:1007A000C04300F096F8A560002032BD012032BDA4
:1007B000000000200C00002001484068704700BF86
:1007C0000000002030B4434351435D18010C0C007D
:1007D000130C5C432D1980B2434392B25143002461
:1007E000C918644124040B04090C09195043C018AA
:1007F000694130BC7047124224D0994228D970B563
:1008000000251B4202D00C00002109E00024012633
:1008100049186441944200D3A41A7641F8D33100B8
:10082000012601E0764109D2001864416D41A41A05
:100830009D41F7D2A4185D41B619F5D330002200CE
:100840002B0070BD1B42D8D108B500F07BF808BD65
:1008500001D19042D3D202000B000021002070474A
:10086000094214D088420FD30122030C01D10004A5
:100870001204002300185B418B4200D35B1A5241E3
:10088000F8D319001000704701000020704708B528
:1008900000F05AF808BDFEE710B5C2001823134057
:1008A000FF249C40E2438907090E9940030004D4C9
:1008B0001F489B089B00C01806E01E4B0007000F56
:1008C000083880088000181803681A401143016036
:1008D00010BD80B5FFF7E0FF01BD010005D4012187
:1008E000C006C00E8140144801607047010009D461
:1008F0000121C006C00E814010480160BFF34F8F38
:10090000BFF36F8F704710B5401E802149048842A5
:1009100001D3012010BD0A4C606003210020C043B8
:10092000FFF7BAFF0020A0600721216010BD000082
:1009300000E400E01CED00E000E100E080E100E008
:1009400010E000E07047FEE77047FEE738B50400AE
:1009500014D0250074356868002803D12870200061
:1009600000F07AFA2420686020680168012291432F
:100970000160200000F020F8012801D1012032BDE3
:10098000606A002802D0200000F02CF9206841683D
:10099000084A0A404260206881682A2291438160A7
:1009A000FFE72068016801220A430260200000F08E
:1009B00083F932BDFFB7FFFFF1B582B000240368B1
:1009C00018688249014002988068084302990969C1
:1009D00001430298406908430299C96901431960BB
:1009E00058687B4901400298C068084358600298E3
:1009F000806978498B4203D001000298006A08435D
:100A00009968754A0A4010439860744881088022AA
:100A10001202734DAB4237D1A44DED6CAD07AD0F53
:100A200004D0022D6FD070D3032D68E0012500950E
:100A30009F4D1023029EF6699642009E00D090E0E2
:100A4000002E0CD0012E00D17DE0022E00D17DE0E1
:100A5000042E00D180E0082E00D180E0ADE0FFF749
:100A60005CFE00282ED00299496840004A08801890
:100A7000FFF7F6FE80B201001039A942EED2054020
:100A80000007400F284386E08A4DAB4225D1874DB1
:100A9000ED6C0C262E4034D0042E36D0082E32D0E9
:100AA0000C2E34D010254B4EB342C0D1002D06D0B1
:100AB000022D2ED0042D32D0082D33D07DE0FFF74B
:100AC0002CFE00287AD002994A6851008918884281
:100AD00073D31103814227D26FE03E4DAB42E1D187
:100AE000724DED6CC02636012E400AD05509AE423B
:100AF0000BD01509AE4206D0C0252D01AE4206D05E
:100B0000D0E70025CFE70225CDE70425CBE7082570
:100B1000C9E7664A1268D206D5D50800D3E7FFF7C1
:100B2000C3FDCEE71000CEE7070E060250080021F5
:100B3000801979410023FFF75EFEAE494118AE4AA5
:100B400091423AD227E0FFF7F3FD8AE7574A12684D
:100B5000134088D0080086E7FFF7A6FD81E7100064
:100B600081E7002E08D0012E19D0022E1AD0042EB3
:100B70001ED0082E1FD020E0FFF7CFFD00281DD08B
:100B8000029949684A088018FFF76AFE80B201009E
:100B90001039A94211D202990968C8600EE0FFF726
:100BA000C7FDEBE7414A12681340E9D00800E7E7C8
:100BB000FFF77AFDE2E71000E2E701240020029946
:100BC0004866029988662000FEBD0000F369FFEFC9
:100BD000FFCFFFFF00480040FFF4FFFF0024F400B8
:100BE000003801402421415CC90706D501684A68E4
:100BF000824B1340826A1A434A602421415C890770
:100C000006D501684A687E4B1340C26A1A434A609F
:100C10002421415C490706D501684A68794B134095
:100C2000026B1A434A602421415C090706D501681A
:100C30004A68754B1340426B1A434A602421415C59
:100C4000C90606D501688A68704B1340826B1A4347
:100C50008A602421415C890606D501688A686C4B4C
:100C60001340C26B1A438A602421415C490611D5A6
:100C700001684A68674B1340026C1A434A60026C71
:100C800080235B039A4205D14A68634B1340426C50
:100C90001A434A602421415C090606D501684A6866
:100CA0005E4B1340806C1843486070470010024050
:100CB000F0FF000000440040F8B504000025743047
:100CC000C560FFF779FD0700554E206800680007F2
:100CD00009D500963B00002280218903200000F006
:100CE0001BF800280DD12068006840070BD500963E
:100CF0003B0000228021C903200000F00DF80028ED
:100D000001D00320F2BD21007431202048608860AA
:100D100025660D700020F2BDFEB5089F80242401D9
:100D20000025060001916846027002933068C06990
:100D3000019901400198814201D1012000E0002089
:100D400069460978884252D10020C0438742EDD0DD
:100D5000FFF732FD0299401A874201D3002F1FD1BD
:100D6000EFF31080012181F3108831680A682D4B60
:100D700013400B6080F31088EFF31080012181F3A2
:100D8000108831688A6801239A438A6080F310884A
:100D90003000743020214160816005700320FEBD69
:100DA000306801684907C1D5C1692140BED00462DD
:100DB000EFF31080012181F3108831680A68194B24
:100DC00013400B6080F31088EFF31080012181F352
:100DD000108831688A6801239A438A6080F31088FA
:100DE00030007430202141608160C160D5E700206F
:100DF000FEBD000000FDFFFF00FD0F00FFFFFDFF37
:100E0000FFFFFEFFFFFFFBFFFF7FFFFFFFEFFFFF87
:100E1000FFDFFFFFFFFFEFFFFFFF9FFFFFFFF7FF7A
:100E2000FFFFFF015FFEFFFF80B521482149016000
:100E3000E1214902416000218160C16001610C2211
:100E400042618161C16101624162FFF77FFD00285B
:100E500001D000F089F801BD10B586B0040014225D
:100E6000002101A800F082F82068124988421DD1B3
:100E7000114881688022D2010A4382600121026800
:100E80000A4302600068014000910098C020C00041
:100E9000019002200290002003900320049004207F
:100EA000059001A9A020C00500F06AF806B010BDA9
:100EB00010000020003801402C10024080B500F0E6
:100EC0004FF900F00AF800F05FF900F0A7F9FFF71A
:100ED000ABFF002000F0FAF9FEE730B599B03421FD
:100EE0000CA800F041FA1421684600F03DFA1C21DC
:100EF00005A800F039FA1A4801681A4A0A40C10CDC
:100F00001143016002200C9001240F9410211091D4
:100F100015900025169540041790000118900CA814
:100F2000FFF7CEF8002801D000F01EF80F20009047
:100F30000320019002950395049501216846FFF76F
:100F4000E1FA002801D072B6FEE70594079505A8DE
:100F500000F012FA002801D072B6FEE719B030BDD9
:100F600000700040FFE7FFFF72B6FEE710B5040017
:100F7000080011000200200000F0F8F9200010BD68
:100F8000FFB500220F2302932DE0062403E06C4CF2
:100F9000A042FAD105246D462D78AC403443019D22
:100FA0002C60684C2668DC4326404D68ED0300D574
:100FB0001E43644D2E606E6826404F68BF0300D507
:100FC0001E436E60AE6826404F68FF0200D51E4388
:100FD000AE60EE6834404E68B60202D526001C00B2
:100FE0003443EC60521C0B681C00D44000D18FE0ED
:100FF000012494402340F5D055000327AF40FE4321
:1010000001964E68B707BF0F012F03D0B607B60F82
:10101000022E0ED18768019E3E40CF68AF40374315
:1010200087604668A6434C68E706FF0F9740374342
:10103000476094006E4674700C79A407A40F032CCB
:1010400026D0C468019E26408C68AC403443C460FE
:101050000C79A407A40F022C1AD1D408A4000419F7
:10106000266A03966E4677781C263E406F463E7091
:10107000039EB446029F6E463678B7406646BE432E
:10108000B4460F696E463678B740664637432762E6
:1010900007680324019E3E404F682740BC462F004E
:1010A0006546BD40354305604D6826042E4099D005
:1010B0000125254E36682E43234F3E60234E970868
:1010C000BF00F6190196366803966E4677780C26AF
:1010D0003E406F463E70039EB446029F6E46367891
:1010E000B7406646BE43A027FF05B84201D10024A1
:1010F00051E7174FB84201D101244CE7154DA842E2
:1011000001D1022447E7144DA84200D03FE742E74F
:10111000FFBD0069084000D00120C0B27047002A1E
:1011200001D081617047816270470C4A13680340A7
:1011300000D1704780B5106000F0F6F801BD0000E6
:10114000001C00500004014034100240080001401F
:101150000004005000080050000C0050140401402E
:1011600010B500240748016840220A4302600020AD
:10117000FFF700FB002801D0012401E000F0C2F9D4
:10118000200010BD00200240F8B586B014220021D6
:1011900001A8FFF7EBFE80211E4802680A430260A7
:1011A0000268114000910099022102680A4302601E
:1011B00002681140009100990124016821430160F7
:1011C0000068204000900098C0267601124F01224E
:1011D00031003800FFF7A3FF04200190882040036E
:1011E00002900025039501A93800FFF7C9FE01967A
:1011F000029403950320049001A93800FFF7C0FE74
:10120000002200210620FFF764FB0620FFF765FBA4
:1012100007B0F0BD2C1002400004005080B52748F4
:101220002749016082214900416000218160C1603D
:1012300001614161802292008261C161016241626B
:1012400081620721C16200F06BF9002801D0FFF72D
:101250008BFE01BDF8B586B004001422002168465B
:10126000FFF784FE20681649884225D11548C168D9
:101270008022D2010A43C260022401682143016036
:1012800000682040059005986002009001940025B8
:10129000029503260396052004900B4F69463800FB
:1012A000FFF76EFEB003009001940295039604953B
:1012B00069463800FFF764FE07B0F0BD94000020D7
:1012C000003800402C1002400004005078B585B072
:1012D000224D802464010026002811D0009488202B
:1012E00040030190029669462800FFF749FE062058
:1012F000FFF7F3FA002205210620FFF7EAFA11E0D2
:101300000620FFF7F3FA00941120019002960220C4
:10131000039069462800FFF733FE012221002800D0
:10132000FFF7FDFE06B070BD80B5802252019042ED
:1013300003D101200A49086001BD042801D100F051
:1013400001F801BD10B5074C01E020688047042179
:101350000248FFF7DEFE0028F7D110BD0004005060
:10136000EC000020F0000020002200BF094202D063
:10137000491E4254FCD17047FEB504000020019084
:10138000564D207880067AD580204005A96B014013
:1013900004D1A96B0843A86301200190AF0D504808
:1013A0000068384013D14E480090006838430099D7
:1013B0000860FFF701FA060000980068384006D17F
:1013C000FFF7FAF9801B6528F6D30320FEBD2968D4
:1013D0006068C02292030A40C021890301408A420A
:1013E0000BD0C02189020140C0229202914204D157
:1013F0002968890301D50120FEBD2A6DC02189021B
:10140000114022D0C0229202024091421DD0207889
:1014100080061AD5296D33480840296DFA020A431F
:101420002A65296D304A0A402A65286507400CD094
:10143000FFF7C2F90600286D800506D4FFF7BCF956
:10144000801B2A498842F6D3BFE76168C02080022A
:1014500002000A40824206D12A68254B134002014D
:101460000A401A432A60296D6268104008432865C3
:101470000198002803D0A86B1E490140A963207879
:10148000C00705D5E86C03218843A1680143E964DE
:101490002078800705D5E86C0C218843E16801437A
:1014A000E9642078400705D5E86C134901402069BC
:1014B0000843E8642078000705D5E86C0F4901402F
:1014C00060690843E8642078000605D5E86C0C499B
:1014D0000140A0690843E8640020FEBD00100240FE
:1014E00000700040FFFFFCFFFFFFF7FF89130000C3
:1014F000FFFFCFFFFFFFFFEFFFF3FFFFFFCFFFFF78
:10150000FFFFF3FF0548016801220A4302604168BA
:10151000802252050A434260704700BF34100240E7
:10152000F8B5040001D10120F2BD82277F0000251B
:10153000606A002804D16068B84203D0E56101E028
:1015400025616561A562260050367078002803D1B8
:1015500035702000FFF77EFE0220707021680A6857
:1015600040239A430A60012162681740A3688422DD
:1015700012021A403A43E36887023B401343226950
:101580001040184362690A400243A0694B021840A8
:101590001043237F38221A4002432020205C8023FE
:1015A00018401043A26A4B031A40024320680260AD
:1015B000A069000C042210402422A25C10231A40CF
:1015C0000243206842602068C269034B1340C36134
:1015D000756071700020F2BDFFF7FFFF70B401234A
:1015E000002413E00168001D194202D04D466D1E13
:1015F00049190C60091D121F042AFAD20D00960722
:1016000001D50C80AD1C1A4000D02C700268001D62
:10161000002AE7D170BC704730B401220EE00368A5
:10162000C31844680830144202D04D466D1E641938
:101630001D6825601B1D241D091FF9D10168001DAF
:101640000029ECD130BC704710B5074979441831F6
:10165000064C7C44163404E0081D0A688918884743
:101660000100A142F8D110BD0800000028000000D0
:101670006DFFFFFFE40000001000002000000000EC
:1016800099FFFFFF10000000B400000000000020E0
:101690000000000070470000000000000000000093
:1016A0000102030406070809030406080C101820A9
:1016B0003000000000F00DF8002801D0FFF7C4FF53
:1016C00000BF00BF002000BF00BFFFF7F7FB00F026
:1016D00002F80120704780B500F002F801BDFEE776
:1016E0000746384600F002F8FBE7FEE780B500BF8A
:1016F00000BF024A11001820ABBEFBE72600020023
:10170000FEE7FEE77047704780B500F007F801BDBF
:1017100080B50420FFF709FD01BDFEE702484168DE
:101720000278891841607047000000200148804716
:1017300001480047951600084D17000801000000F9
:1017400000000000040000000000200000BF00BFF7
:1017500000BF00BFFFF7AEFF00000000010203045E
:10176000FEE7FEE7FEE7FEE7FEE7FEE7FEE7FEE751
:10177000FEE7FEE7FEE7FEE7FEE7FEE7FEE7FEE741
:02178000FEE782
:040000050800174D8B
:00000001FF
